:0C0163000A08C0F9A4B0999282F88090BC
:1000D00075F00A12012CAFF074082FF8E6F5A07F36
:0300E000017E009E
:1000E300E4FDFCC3ED9FEC9E5015E4FBFA0BBB0053
:0F00F300010AEB64644A70F50DBD00010C80E456
:0101020022DA
:10008F00C2B0E51375F00A12012C24081200DB75BB
:10009F00A0FFD2B0C2B1E5131200D075A0FFD2B14C
:1000AF00C2B4E51475F00A12012C24081200DB7596
:1000BF00A0FFD2B4C2B5E5141200D075A0FFD2B51F
:0100CF00220E
:10014E0020B2110513D3E513648094984003E4F5AF
:05015E001330B2FD2288
:100103007FF47E011200E312014E12008F0512E507
:1001130012D3940140F10514E4F512D3E51464807D
:09012300949840E3E4F51480DE39
:03000000020003F8
:0C000300787FE4F6D8FD75811402004AF5
:10012C00C2D530F707B2D563F0FF05F030E70CB25B
:10013C00D5F4048463F0FF05F080018430D502F41B
:02014C0004228B
:10000F00020103E493A3F8E493A34003F68001F203
:10001F0008DFF48029E493A3F85407240CC8C333F2
:10002F00C4540F4420C8834004F456800146F6DFC1
:10003F00E4800B0102040810204080900163E47EED
:10004F00019360BCA3FF543F30E509541FFEE493B6
:10005F00A360010ECF54C025E060A840B8E493A37D
:10006F00FAE493A3F8E493A3C8C582C8CAC583CAA8
:10007F00F0A3C8C582C8CAC583CADFE9DEE780BE60
:01016F00008F
:00000001FF
