:1000960043414F2056414E2048494555004B35387F
:1000A600204B54444B2026205444480031373535E4
:0D00B60032353230323136303030353000E6
:10017800E4FDFCC3ED9FEC9E50070DBD00010C8013
:01018800F284
:010189002253
:0400EC007FE87E0328
:1000F000E4FDFCC3ED9FEC9E5015E4FBFA0BBB0046
:0F010000010AEB647D4A70F50DBD00010C80E42F
:01010F0022CD
:0301650012013054
:10016800D2827F037E00120178C2827F3202017838
:10013000EF139284EFC313139285EF1313543F13FD
:0C0140009286EF131313541F13928722B2
:10018A00AB07EBC4540FFF120165AF031201300233
:02019A000168FA
:0C019C007F0112018A7F0A7E00020178B8
:10005100E4FF1201307F147E001200F0C280C281E1
:100061007F031201657F057E001200F01201687F97
:10007100647E001201781201687F021201301201C0
:10008100687F2812018A7F0C12018A7F0612018A79
:050091007F0102018A5D
:10011000ED7006EF2480FA8004EF24C0FA7FE87EB9
:1001200003120178AF0212018A7F327E0002017849
:0801B400D28012018AC28022F0
:0600C3007BFF7A00799634
:1000C9008B088A09890AAB08AA09A90A12014CFFF7
:1000D90060101201B47401250AF50AE43509F5091D
:0300E90080E4228E
:100003001200517F0A7E001200F01200C31200ECAE
:1000130012019C7D08E4FF1201107BFF7A0079A393
:100023001200C91200ECE4FDFF1201101200C3120A
:1000330000EC7D01E4FF1201107BFF7A0079B2121C
:0E00430000C97F407E421200F012019C80FE38
:030000000201A852
:0C01A800787FE4F6D8FD75810A020003A0
:10014C00BB010689828A83E0225002E722BBFE02B1
:09015C00E32289828A83E49322E4
:00000001FF
