:0D00F9000B08C0F9A4B0999282F880900025
:0B010700EF1FAC0670011E4C70F622CA
:10008F00E4FDE4FBFAED75F00A1200D72408F8E658
:10009F00F5A0C2B07FF47E01120107D2B0ED75F06A
:1000AF000A1200D7AFF074082FF8E6F5A0C2B17F9F
:1000BF00F47E01120107D2B10BBB00010AEB64649D
:0700CF004A70C20DBD42BBE7
:0100D6002207
:09011200C2B0C2B112008F80FBE3
:03000000020003F8
:0C000300787FE4F6D8FD75811202004AF7
:1000D700C2D530F707B2D563F0FF05F030E70CB2B1
:1000E700D5F4048463F0FF05F080018430D502F471
:0200F7000422E1
:10000F00020112E493A3F8E493A34003F68001F2F4
:10001F0008DFF48029E493A3F85407240CC8C333F2
:10002F00C4540F4420C8834004F456800146F6DFC1
:10003F00E4800B01020408102040809000F9E47E58
:10004F00019360BCA3FF543F30E509541FFEE493B6
:10005F00A360010ECF54C025E060A840B8E493A37D
:10006F00FAE493A3F8E493A3C8C582C8CAC583CAA8
:10007F00F0A3C8C582C8CAC583CADFE9DEE780BE60
:0101060000F8
:00000001FF
